{
  "contractName": "MushroomFarm",
  "abi": [
    {
      "inputs": [],
      "stateMutability": "nonpayable",
      "type": "constructor"
    },
    {
      "inputs": [
        {
          "internalType": "address",
          "name": "",
          "type": "address"
        }
      ],
      "name": "claimedMushrooms",
      "outputs": [
        {
          "internalType": "uint256",
          "name": "",
          "type": "uint256"
        }
      ],
      "stateMutability": "view",
      "type": "function",
      "constant": true
    },
    {
      "inputs": [
        {
          "internalType": "address",
          "name": "",
          "type": "address"
        }
      ],
      "name": "farmers",
      "outputs": [
        {
          "internalType": "uint256",
          "name": "",
          "type": "uint256"
        }
      ],
      "stateMutability": "view",
      "type": "function",
      "constant": true
    },
    {
      "inputs": [
        {
          "internalType": "address",
          "name": "",
          "type": "address"
        }
      ],
      "name": "lastHarvest",
      "outputs": [
        {
          "internalType": "uint256",
          "name": "",
          "type": "uint256"
        }
      ],
      "stateMutability": "view",
      "type": "function",
      "constant": true
    },
    {
      "inputs": [],
      "name": "marketMushrooms",
      "outputs": [
        {
          "internalType": "uint256",
          "name": "",
          "type": "uint256"
        }
      ],
      "stateMutability": "view",
      "type": "function",
      "constant": true
    },
    {
      "inputs": [],
      "name": "owner",
      "outputs": [
        {
          "internalType": "address",
          "name": "",
          "type": "address"
        }
      ],
      "stateMutability": "view",
      "type": "function",
      "constant": true
    },
    {
      "inputs": [],
      "name": "period",
      "outputs": [
        {
          "internalType": "uint256",
          "name": "",
          "type": "uint256"
        }
      ],
      "stateMutability": "view",
      "type": "function",
      "constant": true
    },
    {
      "inputs": [
        {
          "internalType": "address",
          "name": "",
          "type": "address"
        }
      ],
      "name": "referrals",
      "outputs": [
        {
          "internalType": "address",
          "name": "",
          "type": "address"
        }
      ],
      "stateMutability": "view",
      "type": "function",
      "constant": true
    },
    {
      "inputs": [],
      "name": "startTime",
      "outputs": [
        {
          "internalType": "uint256",
          "name": "",
          "type": "uint256"
        }
      ],
      "stateMutability": "view",
      "type": "function",
      "constant": true
    },
    {
      "inputs": [
        {
          "internalType": "uint256",
          "name": "_startTime",
          "type": "uint256"
        }
      ],
      "name": "initialize",
      "outputs": [],
      "stateMutability": "nonpayable",
      "type": "function"
    },
    {
      "inputs": [
        {
          "internalType": "address",
          "name": "_ref",
          "type": "address"
        }
      ],
      "name": "buyMushrooms",
      "outputs": [],
      "stateMutability": "payable",
      "type": "function",
      "payable": true
    },
    {
      "inputs": [
        {
          "internalType": "address",
          "name": "_ref",
          "type": "address"
        }
      ],
      "name": "multiplyMushrooms",
      "outputs": [],
      "stateMutability": "nonpayable",
      "type": "function"
    },
    {
      "inputs": [],
      "name": "sellMushrooms",
      "outputs": [],
      "stateMutability": "nonpayable",
      "type": "function"
    },
    {
      "inputs": [
        {
          "internalType": "uint256",
          "name": "_rt",
          "type": "uint256"
        },
        {
          "internalType": "uint256",
          "name": "_rs",
          "type": "uint256"
        },
        {
          "internalType": "uint256",
          "name": "_bs",
          "type": "uint256"
        }
      ],
      "name": "calculate",
      "outputs": [
        {
          "internalType": "uint256",
          "name": "",
          "type": "uint256"
        }
      ],
      "stateMutability": "pure",
      "type": "function",
      "constant": true
    },
    {
      "inputs": [
        {
          "internalType": "uint256",
          "name": "_amount",
          "type": "uint256"
        }
      ],
      "name": "getDevFee",
      "outputs": [
        {
          "internalType": "uint256",
          "name": "",
          "type": "uint256"
        }
      ],
      "stateMutability": "pure",
      "type": "function",
      "constant": true
    },
    {
      "inputs": [],
      "name": "getBalance",
      "outputs": [
        {
          "internalType": "uint256",
          "name": "",
          "type": "uint256"
        }
      ],
      "stateMutability": "view",
      "type": "function",
      "constant": true
    },
    {
      "inputs": [],
      "name": "getMyFarmers",
      "outputs": [
        {
          "internalType": "uint256",
          "name": "",
          "type": "uint256"
        }
      ],
      "stateMutability": "view",
      "type": "function",
      "constant": true
    },
    {
      "inputs": [],
      "name": "getMyMushrooms",
      "outputs": [
        {
          "internalType": "uint256",
          "name": "",
          "type": "uint256"
        }
      ],
      "stateMutability": "view",
      "type": "function",
      "constant": true
    },
    {
      "inputs": [
        {
          "internalType": "address",
          "name": "_address",
          "type": "address"
        }
      ],
      "name": "getMushroomsSinceLastHarvest",
      "outputs": [
        {
          "internalType": "uint256",
          "name": "",
          "type": "uint256"
        }
      ],
      "stateMutability": "view",
      "type": "function",
      "constant": true
    }
  ],
  "bytecode": "0x6080604052620d2f00600155637735940060025534801561001f57600080fd5b50336000806101000a81548173ffffffffffffffffffffffffffffffffffffffff021916908373ffffffffffffffffffffffffffffffffffffffff16021790555061143f8061006f6000396000f3fe6080604052600436106101095760003560e01c8063969b07b711610095578063c3de895b11610064578063c3de895b14610360578063e97cf8831461039d578063ef767632146103da578063ef78d4fd14610417578063fe4b84df1461044257610109565b8063969b07b7146102b157806398f9fbed146102cd5780639ca423b3146102f8578063a49e12a91461033557610109565b80633cb1f0e9116100dc5780633cb1f0e9146101b6578063401b2168146101e1578063486b9f881461021e57806378e979251461025b5780638da5cb5b1461028657610109565b80630fd40c2e1461010e57806312065fe01461014b578063312d662e146101765780633bb401aa1461019f575b600080fd5b34801561011a57600080fd5b5061013560048036038101906101309190610f76565b61046b565b6040516101429190610fb2565b60405180910390f35b34801561015757600080fd5b5061016061048d565b60405161016d9190610fb2565b60405180910390f35b34801561018257600080fd5b5061019d6004803603810190610198919061102b565b610495565b005b3480156101ab57600080fd5b506101b46108b9565b005b3480156101c257600080fd5b506101cb610a87565b6040516101d89190610fb2565b60405180910390f35b3480156101ed57600080fd5b506102086004803603810190610203919061102b565b610a8d565b6040516102159190610fb2565b60405180910390f35b34801561022a57600080fd5b506102456004803603810190610240919061102b565b610aa5565b6040516102529190610fb2565b60405180910390f35b34801561026757600080fd5b50610270610abd565b60405161027d9190610fb2565b60405180910390f35b34801561029257600080fd5b5061029b610ac3565b6040516102a89190611067565b60405180910390f35b6102cb60048036038101906102c6919061102b565b610ae7565b005b3480156102d957600080fd5b506102e2610c36565b6040516102ef9190610fb2565b60405180910390f35b34801561030457600080fd5b5061031f600480360381019061031a919061102b565b610c90565b60405161032c9190611067565b60405180910390f35b34801561034157600080fd5b5061034a610cc3565b6040516103579190610fb2565b60405180910390f35b34801561036c57600080fd5b506103876004803603810190610382919061102b565b610d0a565b6040516103949190610fb2565b60405180910390f35b3480156103a957600080fd5b506103c460048036038101906103bf9190611082565b610d22565b6040516103d19190610fb2565b60405180910390f35b3480156103e657600080fd5b5061040160048036038101906103fc919061102b565b610d8a565b60405161040e9190610fb2565b60405180910390f35b34801561042357600080fd5b5061042c610e33565b6040516104399190610fb2565b60405180910390f35b34801561044e57600080fd5b5061046960048036038101906104649190610f76565b610e39565b005b6000606460028361047c9190611104565b610486919061118d565b9050919050565b600047905090565b6000600354116104da576040517f08c379a00000000000000000000000000000000000000000000000000000000081526004016104d19061121b565b60405180910390fd5b3373ffffffffffffffffffffffffffffffffffffffff168173ffffffffffffffffffffffffffffffffffffffff1614806105405750600073ffffffffffffffffffffffffffffffffffffffff168173ffffffffffffffffffffffffffffffffffffffff16145b8061058a57506000600460008373ffffffffffffffffffffffffffffffffffffffff1673ffffffffffffffffffffffffffffffffffffffff16815260200190815260200160002054145b156105b35760008054906101000a900473ffffffffffffffffffffffffffffffffffffffff1690505b600073ffffffffffffffffffffffffffffffffffffffff16600760003373ffffffffffffffffffffffffffffffffffffffff1673ffffffffffffffffffffffffffffffffffffffff16815260200190815260200160002060009054906101000a900473ffffffffffffffffffffffffffffffffffffffff1673ffffffffffffffffffffffffffffffffffffffff16036106c55780600760003373ffffffffffffffffffffffffffffffffffffffff1673ffffffffffffffffffffffffffffffffffffffff16815260200190815260200160002060006101000a81548173ffffffffffffffffffffffffffffffffffffffff021916908373ffffffffffffffffffffffffffffffffffffffff1602179055505b60006106cf610c36565b90506000600154826106e1919061118d565b905080600460003373ffffffffffffffffffffffffffffffffffffffff1673ffffffffffffffffffffffffffffffffffffffff1681526020019081526020016000206000828254610732919061123b565b925050819055506000600560003373ffffffffffffffffffffffffffffffffffffffff1673ffffffffffffffffffffffffffffffffffffffff1681526020019081526020016000208190555042600660003373ffffffffffffffffffffffffffffffffffffffff1673ffffffffffffffffffffffffffffffffffffffff168152602001908152602001600020819055506064600f836107d19190611104565b6107db919061118d565b60056000600760003373ffffffffffffffffffffffffffffffffffffffff1673ffffffffffffffffffffffffffffffffffffffff16815260200190815260200160002060009054906101000a900473ffffffffffffffffffffffffffffffffffffffff1673ffffffffffffffffffffffffffffffffffffffff1673ffffffffffffffffffffffffffffffffffffffff1681526020019081526020016000206000828254610888919061123b565b9250508190555060058261089c919061118d565b600360008282546108ad919061123b565b92505081905550505050565b60025442116108fd576040517f08c379a00000000000000000000000000000000000000000000000000000000081526004016108f4906112dd565b60405180910390fd5b6000610907610c36565b905060006109188260035447610d22565b905060006109258261046b565b90506000600560003373ffffffffffffffffffffffffffffffffffffffff1673ffffffffffffffffffffffffffffffffffffffff1681526020019081526020016000208190555042600660003373ffffffffffffffffffffffffffffffffffffffff1673ffffffffffffffffffffffffffffffffffffffff1681526020019081526020016000208190555082600360008282546109c2919061123b565b9250508190555060008054906101000a900473ffffffffffffffffffffffffffffffffffffffff1673ffffffffffffffffffffffffffffffffffffffff166108fc829081150290604051600060405180830381858888f19350505050158015610a2f573d6000803e3d6000fd5b503373ffffffffffffffffffffffffffffffffffffffff166108fc8284610a5691906112fd565b9081150290604051600060405180830381858888f19350505050158015610a81573d6000803e3d6000fd5b50505050565b60035481565b60046020528060005260406000206000915090505481565b60066020528060005260406000206000915090505481565b60025481565b60008054906101000a900473ffffffffffffffffffffffffffffffffffffffff1681565b600060035411610b2c576040517f08c379a0000000000000000000000000000000000000000000000000000000008152600401610b239061121b565b60405180910390fd5b6000610b46343447610b3e91906112fd565b600354610d22565b9050610b518161046b565b81610b5c91906112fd565b90506000610b693461046b565b905060008054906101000a900473ffffffffffffffffffffffffffffffffffffffff1673ffffffffffffffffffffffffffffffffffffffff166108fc829081150290604051600060405180830381858888f19350505050158015610bd1573d6000803e3d6000fd5b5081600560003373ffffffffffffffffffffffffffffffffffffffff1673ffffffffffffffffffffffffffffffffffffffff1681526020019081526020016000206000828254610c21919061123b565b92505081905550610c3183610495565b505050565b6000610c4133610d8a565b600560003373ffffffffffffffffffffffffffffffffffffffff1673ffffffffffffffffffffffffffffffffffffffff16815260200190815260200160002054610c8b919061123b565b905090565b60076020528060005260406000206000915054906101000a900473ffffffffffffffffffffffffffffffffffffffff1681565b6000600460003373ffffffffffffffffffffffffffffffffffffffff1673ffffffffffffffffffffffffffffffffffffffff16815260200190815260200160002054905090565b60056020528060005260406000206000915090505481565b600080612710905060006113889050858682610d3e9190611104565b8684610d4a9190611104565b610d54919061123b565b610d5e919061118d565b81610d69919061123b565b8483610d759190611104565b610d7f919061118d565b925050509392505050565b6000600460008373ffffffffffffffffffffffffffffffffffffffff1673ffffffffffffffffffffffffffffffffffffffff16815260200190815260200160002054610e22600154600660008673ffffffffffffffffffffffffffffffffffffffff1673ffffffffffffffffffffffffffffffffffffffff1681526020019081526020016000205442610e1d91906112fd565b610f22565b610e2c9190611104565b9050919050565b60015481565b60008054906101000a900473ffffffffffffffffffffffffffffffffffffffff1673ffffffffffffffffffffffffffffffffffffffff163373ffffffffffffffffffffffffffffffffffffffff1614610ec7576040517f08c379a0000000000000000000000000000000000000000000000000000000008152600401610ebe9061137d565b60405180910390fd5b600060035414610f0c576040517f08c379a0000000000000000000000000000000000000000000000000000000008152600401610f03906113e9565b60405180910390fd5b8060028190555064141dd7600060038190555050565b6000818310610f315781610f33565b825b905092915050565b600080fd5b6000819050919050565b610f5381610f40565b8114610f5e57600080fd5b50565b600081359050610f7081610f4a565b92915050565b600060208284031215610f8c57610f8b610f3b565b5b6000610f9a84828501610f61565b91505092915050565b610fac81610f40565b82525050565b6000602082019050610fc76000830184610fa3565b92915050565b600073ffffffffffffffffffffffffffffffffffffffff82169050919050565b6000610ff882610fcd565b9050919050565b61100881610fed565b811461101357600080fd5b50565b60008135905061102581610fff565b92915050565b60006020828403121561104157611040610f3b565b5b600061104f84828501611016565b91505092915050565b61106181610fed565b82525050565b600060208201905061107c6000830184611058565b92915050565b60008060006060848603121561109b5761109a610f3b565b5b60006110a986828701610f61565b93505060206110ba86828701610f61565b92505060406110cb86828701610f61565b9150509250925092565b7f4e487b7100000000000000000000000000000000000000000000000000000000600052601160045260246000fd5b600061110f82610f40565b915061111a83610f40565b9250817fffffffffffffffffffffffffffffffffffffffffffffffffffffffffffffffff0483118215151615611153576111526110d5565b5b828202905092915050565b7f4e487b7100000000000000000000000000000000000000000000000000000000600052601260045260246000fd5b600061119882610f40565b91506111a383610f40565b9250826111b3576111b261115e565b5b828204905092915050565b600082825260208201905092915050565b7f6e6f7420696e697469616c697a65640000000000000000000000000000000000600082015250565b6000611205600f836111be565b9150611210826111cf565b602082019050919050565b60006020820190508181036000830152611234816111f8565b9050919050565b600061124682610f40565b915061125183610f40565b9250827fffffffffffffffffffffffffffffffffffffffffffffffffffffffffffffffff03821115611286576112856110d5565b5b828201905092915050565b7f6e6f742073746172746564000000000000000000000000000000000000000000600082015250565b60006112c7600b836111be565b91506112d282611291565b602082019050919050565b600060208201905081810360008301526112f6816112ba565b9050919050565b600061130882610f40565b915061131383610f40565b925082821015611326576113256110d5565b5b828203905092915050565b7f63616c6c6572206973206e6f7420746865206f776e6572000000000000000000600082015250565b60006113676017836111be565b915061137282611331565b602082019050919050565b600060208201905081810360008301526113968161135a565b9050919050565b7f616c726561647920696e697469616c697a656400000000000000000000000000600082015250565b60006113d36013836111be565b91506113de8261139d565b602082019050919050565b60006020820190508181036000830152611402816113c6565b905091905056fea26469706673582212206bb54aadffd21d1478ed56e6a173884fcda921302784d883d0b82aee4d0a4e6d64736f6c634300080d0033",
  "immutableReferences": {},
  "source": "// SPDX-License-Identifier: MIT\npragma solidity ^0.8.0;\n\ncontract MushroomFarm {\n    address public owner;\n    uint256 public period = 864000;\n    uint256 public startTime = 2000000000;\n    uint256 public marketMushrooms;\n    mapping (address => uint256) public farmers;\n    mapping (address => uint256) public claimedMushrooms;\n    mapping (address => uint256) public lastHarvest;\n    mapping (address => address) public referrals;\n\n    modifier onlyOwner {\n        require(msg.sender == owner, \"caller is not the owner\");\n        _;\n    }\n\n    modifier onlyInitialized {\n        require(marketMushrooms > 0, \"not initialized\");\n        _;\n    }\n\n    modifier onlyStarted {\n        require(block.timestamp > startTime, \"not started\");\n        _;\n    }\n\n    constructor() {\n        owner = msg.sender;\n    }\n\n    function initialize(uint _startTime) onlyOwner public {\n        require(marketMushrooms == 0, \"already initialized\");\n        startTime = _startTime;\n        marketMushrooms = 86400000000;\n    }\n\n    function buyMushrooms(address _ref) onlyInitialized public payable {\n        uint256 value = calculate(msg.value, address(this).balance - msg.value, marketMushrooms);\n        value -= getDevFee(value);\n        uint256 fee = getDevFee(msg.value);\n        payable(owner).transfer(fee);\n        claimedMushrooms[msg.sender] += value;\n        multiplyMushrooms(_ref);\n    }\n\n    function multiplyMushrooms(address _ref) onlyInitialized public {\n        if (_ref == msg.sender || _ref == address(0) || farmers[_ref] == 0) {\n            _ref = owner;\n        }\n        if (referrals[msg.sender] == address(0)) {\n            referrals[msg.sender] = _ref;\n        }\n        uint256 used = getMyMushrooms();\n        uint256 newFarmers = used / period;\n        farmers[msg.sender] += newFarmers;\n        claimedMushrooms[msg.sender] = 0;\n        lastHarvest[msg.sender] = block.timestamp;\n        claimedMushrooms[referrals[msg.sender]] += used * 15 / 100;\n        marketMushrooms += used / 5;\n    }\n\n    function sellMushrooms() onlyStarted public {\n        uint256 myMushrooms = getMyMushrooms();\n        uint256 value = calculate(myMushrooms, marketMushrooms, address(this).balance);\n        uint256 fee = getDevFee(value);\n        claimedMushrooms[msg.sender] = 0;\n        lastHarvest[msg.sender] = block.timestamp;\n        marketMushrooms += myMushrooms;\n        payable(owner).transfer(fee);\n        payable(msg.sender).transfer(value - fee);\n    }\n\n    function calculate(uint256 _rt, uint256 _rs, uint256 _bs) public pure returns (uint256) {\n        uint256 psn = 10000;\n        uint256 psnh = 5000;\n        return (psn * _bs) / (psnh + ((psn * _rs + psnh * _rt) / _rt));\n    }\n\n    function getDevFee(uint256 _amount) public pure returns (uint256) {\n        return _amount * 2 / 100;\n    }\n\n    function getBalance() public view returns (uint256) {\n        return address(this).balance;\n    }\n\n    function getMyFarmers() public view returns (uint256) {\n        return farmers[msg.sender];\n    }\n\n    function getMyMushrooms() public view returns (uint256) {\n        return claimedMushrooms[msg.sender] + getMushroomsSinceLastHarvest(msg.sender);\n    }\n\n    function getMushroomsSinceLastHarvest(address _address) public view returns (uint256) {\n        return min(period, block.timestamp - lastHarvest[_address]) * farmers[_address];\n    }\n\n    function min(uint256 _a, uint256 _b) private pure returns (uint256) {\n        return _a < _b ? _a : _b;\n    }\n}\n",
  "sourcePath": "/Users/memochou/Projects/mushroom-farm/contracts/MushroomFarm.sol",
  "compiler": {
    "name": "solc",
    "version": "0.8.13+commit.abaa5c0e.Emscripten.clang"
  },
  "schemaVersion": "3.4.7",
  "updatedAt": "2022-06-13T08:13:01.027Z",
  "networkType": "ethereum",
  "devdoc": {
    "kind": "dev",
    "methods": {},
    "version": 1
  },
  "userdoc": {
    "kind": "user",
    "methods": {},
    "version": 1
  }
}